:0400000007EF00F016
:0A0008007E826BED0AF072EF10F03B
:10100000003738392F3435362A3132332D23303DED
:051010002B2569000022
:101016002C50800B356E2C502C24376E2BAE16EFD1
:1010260008F018EF08F019EF08F037803750D8B4F9
:101036001FEF08F021EF08F036EF08F03728D8A4A4
:1010460027EF08F029EF08F031EF08F0000E296EBF
:10105600000E2A6E000E2B6E000E2C6E2B8E000ECE
:101066002C6E3EEF08F0000E296E000E2A6E000E62
:101076002B6E000E2C6E3050800B366E35503618A7
:10108600D8B448EF08F04AEF08F04BEF08F0358C7B
:1010960030503024366E2FAE53EF08F055EF08F07F
:1010A60056EF08F036803650D8B45CEF08F05EEFA5
:1010B60008F073EF08F03628D8A464EF08F066EF5E
:1010C60008F06EEF08F0000E2D6E000E2E6E000E6C
:1010D6002F6E000E306E2F8E000E306E7BEF08F0F6
:1010E600000E2D6E000E2E6E000E2F6E000E306E50
:1010F6003750365CD8B082EF08F084EF08F0ABEFDB
:1011060008F035AC89EF08F08BEF08F08DEF08F0AA
:10111600800E351A37C038F036C037F038C036F092
:1011260029C038F02DC029F038C02DF02AC038F07B
:101136002EC02AF038C02EF02BC038F02FC02BF06E
:1011460038C02FF02CC038F030C02CF038C030F04A
:10115600000E386E375036C031F0326A315E000EFE
:10116600325A32BEC0EF08F0325009E11A0E315C35
:10117600D8A0C0EF08F0C2EF08F0F9EF08F0295048
:101186002A102B102C10D8A4CBEF08F0CEEF08F0C5
:10119600010ECFEF08F0000E386E000E296E000E1D
:1011A6002A6E000E2B6E000E2C6E36C037F002EF44
:1011B60009F038A0E1EF08F0E3EF08F0E9EF08F0F6
:1011C600D89038300109386EEBEF08F0D8903832F5
:1011D60029A0F0EF08F0F2EF08F0F3EF08F0388EF0
:1011E6002C342C322B322A322932372A3650375CAD
:1011F600D8A000EF09F002EF09F0DCEF08F035BCEB
:1012060007EF09F009EF09F049EF09F03750D8A4C4
:101216000FEF09F011EF09F01BEF09F0000E296E30
:10122600000E2A6E000E2B6E000E2C6E6AEF0AF070
:101236002D5029262E502A222F502B2230502C2278
:101246002CA028EF09F02AEF09F0D6EF09F038A014
:101256002FEF09F031EF09F037EF09F0D890383069
:101266000109386E39EF09F0D890383229A03EEFDF
:1012760009F040EF09F041EF09F0388E2C342C329A
:101286002B322A322932372AD6EF09F02D50295C23
:101296002E502A582F502B582C50800A316E305021
:1012A600800A3158D8B05AEF09F05CEF09F087EFA1
:1012B60009F029502D5C316E2A502E58326E2B5073
:1012C6002F58336E2C503058346EFF0E3124296E51
:1012D600FF0E32202A6EFF0E33202B6EFF0E3420B7
:1012E6002C6E800E351A386C3850D8A47DEF09F074
:1012F6007FEF09F08FEF09F0010E2926000E2A2252
:101306002B222C228FEF09F02D50295E2E502A5ABF
:101316002F502B5A30502C5A29502A102B102C1093
:10132600D8A498EF09F09AEF09F0CFEF09F03850FA
:10133600D8A4A0EF09F0A2EF09F0CFEF09F0000E54
:10134600296E000E2A6E000E2B6E000E2C6E6AEFB2
:101356000AF0D89029362A362B362C3638AEB6EF18
:1013660009F0B8EF09F0B9EF09F0298038A0BEEF0F
:1013760009F0C0EF09F0C4EF09F0D8803836C6EF9F
:1013860009F0D89038363750D8B4CCEF09F0CEEF04
:1013960009F0CFEF09F037062BAED4EF09F0D6EF00
:1013A60009F0ACEF09F0000E366E38AEDDEF09F04D
:1013B600DFEF09F0F7EF09F038C031F07F0E311694
:1013C600D8B4E8EF09F0EAEF09F0EEEF09F0010E04
:1013D600366EF7EF09F029A0F3EF09F0F5EF09F003
:1013E600F7EF09F0EAEF09F03650D8B4FDEF09F04F
:1013F600FFEF09F02AEF0AF0010E2926000E2A2235
:101406002B222C222CA00AEF0AF00CEF0AF02AEF6E
:101416000AF029C031F02AC032F02BC033F02CC0BC
:1014260034F03434343233323232313231C029F08E
:1014360032C02AF033C02BF034C02CF03728D8B491
:1014460027EF0AF029EF0AF02AEF0AF0372A3728A1
:10145600D8B430EF0AF032EF0AF03AEF0AF037501C
:10146600D8A438EF0AF03AEF0AF04CEF0AF0000E73
:10147600296E000E2A6E000E2B6E000E2C6E375053
:10148600D8A448EF0AF04AEF0AF04CEF0AF0000E33
:10149600356E37A051EF0AF053EF0AF056EF0AF017
:1014A6002B8E57EF0AF02B9ED89037302C6E35AE28
:1014B6005FEF0AF061EF0AF062EF0AF02C8E29C0A6
:1014C60029F02AC02AF02BC02BF02CC02CF01200D9
:1014D6000600F2A871EF0AF073EF0AF07CEF0AF04B
:1014E600F2A278EF0AF07AEF0AF07CEF0AF004EC49
:1014F60012F0F0A681EF0AF083EF0AF08CEF0AF003
:10150600F0A088EF0AF08AEF0AF08CEF0AF002ECFE
:1015160012F0F0A891EF0AF093EF0AF09CEF0AF0B0
:10152600F0A298EF0AF09AEF0AF09CEF0AF000ECAE
:1015360012F09DACA1EF0AF0A3EF0AF0ACEF0AF0AF
:101546009EACA8EF0AF0AAEF0AF0ACEF0AF00AEC9C
:1015560012F0F2A6B1EF0AF0B3EF0AF0CEEF0AF0FE
:10156600F2A0B8EF0AF0BAEF0AF0CEEF0AF081A8BF
:10157600BFEF0AF0C1EF0AF0CEEF0AF07704D8A465
:10158600C7EF0AF0C9EF0AF0CEEF0AF0000E776E49
:10159600000ECCEC11F0F2A6D3EF0AF0D5EF0AF06C
:1015A600F0EF0AF0F2A0DAEF0AF0DCEF0AF0F0EF63
:1015B6000AF081B8E1EF0AF0E3EF0AF0F0EF0AF083
:1015C6007750D8A4E9EF0AF0EBEF0AF0F0EF0AF053
:1015D600010E776E010ECCEC11F0F2A6F5EF0AF0D3
:1015E600F7EF0AF012EF0BF0F2A0FCEF0AF0FEEFB5
:1015F6000AF012EF0BF081AA03EF0BF005EF0BF0E8
:1016060012EF0BF07604D8A40BEF0BF00DEF0BF0F6
:1016160012EF0BF0000E766E000EBFEC11F0F2A684
:1016260017EF0BF019EF0BF034EF0BF0F2A01EEFF3
:101636000BF020EF0BF034EF0BF081BA25EF0BF037
:1016460027EF0BF034EF0BF07650D8A42DEF0BF00C
:101656002FEF0BF034EF0BF0010E766E010EBFECA0
:1016660011F0F2A639EF0BF03BEF0BF056EF0BF053
:10167600F2A040EF0BF042EF0BF056EF0BF081AC0F
:1016860047EF0BF049EF0BF056EF0BF07504D8A4BB
:101696004FEF0BF051EF0BF056EF0BF0000E756E9F
:1016A600000EB2EC11F0F2A65BEF0BF05DEF0BF063
:1016B60078EF0BF0F2A062EF0BF064EF0BF078EF2F
:1016C6000BF081BC69EF0BF06BEF0BF078EF0BF0D2
:1016D6007550D8A471EF0BF073EF0BF078EF0BF0A9
:1016E600010E756E010EB2EC11F0F2A67DEF0BF055
:1016F6007FEF0BF09AEF0BF0F2A084EF0BF086EF82
:101706000BF09AEF0BF081AE8BEF0BF08DEF0BF039
:101716009AEF0BF07404D8A493EF0BF095EF0BF04F
:101726009AEF0BF0000E746E000EA5EC11F0F2A607
:101736009FEF0BF0A1EF0BF0BCEF0BF0F2A0A6EFC2
:101746000BF0A8EF0BF0BCEF0BF081BEADEF0BF08A
:10175600AFEF0BF0BCEF0BF07450D8A4B5EF0BF065
:10176600B7EF0BF0BCEF0BF0010E746E010EA5EC9B
:1017760011F09DACC1EF0BF0C3EF0BF0C4EF0BF013
:101786009E50F2AAC9EF0BF0CBEF0BF0D4EF0BF0A3
:10179600F2A4D0EF0BF0D2EF0BF0D4EF0BF0EEEC9F
:1017A60011F09DA0D9EF0BF0DBEF0BF0E4EF0BF09F
:1017B6009EA0E0EF0BF0E2EF0BF0E4EF0BF0E8ECAD
:1017C60011F09DA2E9EF0BF0EBEF0BF0F4EF0BF04D
:1017D6009EA2F0EF0BF0F2EF0BF0F4EF0BF0F4EC4F
:1017E60011F0A0A2F9EF0BF0FBEF0BF004EF0CF0F9
:1017F600A1A200EF0CF002EF0CF004EF0CF0E2EC0B
:1018060011F09DA809EF0CF00BEF0CF00CEF0CF0AB
:101816009E509DAA11EF0CF013EF0CF014EF0CF094
:101826009E509DA619EF0CF01BEF0CF01CEF0CF070
:101836009E50A0A621EF0CF023EF0CF024EF0CF045
:10184600A1509DA629EF0CF02BEF0CF034EF0CF015
:101856009EA630EF0CF032EF0CF034EF0CF0FEECFD
:1018660011F09DA439EF0CF03BEF0CF044EF0CF0B7
:101876009EA440EF0CF042EF0CF044EF0CF008ECA5
:1018860012F0A0A049EF0CF04BEF0CF054EF0CF067
:10189600A1A050EF0CF052EF0CF054EF0CF006EC58
:1018A60012F07E9211001350800B206E13501324F9
:1018B600276E12AE61EF0CF063EF0CF064EF0CF0E4
:1018C60027802750D8B46AEF0CF06CEF0CF081EF4C
:1018D6000CF02728D8A472EF0CF074EF0CF07CEF14
:1018E6000CF0000E106E000E116E000E126E000E41
:1018F600136E128E000E136E89EF0CF0000E106E32
:10190600000E116E000E126E000E136E1750800B35
:10191600201A17501724286E16AE94EF0CF096EF87
:101926000CF097EF0CF028802850D8B49DEF0CF0FF
:101936009FEF0CF0B4EF0CF02828D8A4A5EF0CF01C
:10194600A7EF0CF0AFEF0CF0000E146E000E156E44
:10195600000E166E000E176E168E000E176EBCEF7A
:101966000CF0000E146E000E156E000E166E000EB4
:10197600176E1450151016101710D8A4C5EF0CF0DA
:10198600C7EF0CF0DFEF0CF0000E106E000E116EBC
:10199600000E126E000E136E800E12127F0E1312C0
:1019A6002050131210C010F011C011F012C012F026
:1019B60013C013F022EF0EF02750D8A4E5EF0CF079
:1019C600E7EF0CF0F1EF0CF0000E106E000E116E4A
:1019D600000E126E000E136E22EF0EF0285027C076
:1019E60018F0196A185E000E195A7F0E1824216E17
:1019F600000E1920226E10C01CF011C01DF012C07E
:101A06001EF013C01FF0000E106E000E116E000EB9
:101A1600126E000E136E000E236E000E246E000E64
:101A2600256E000E266E000E286E52EF0DF0285021
:101A3600D8B420EF0DF022EF0DF039EF0DF0D8906D
:101A46001C361D361E361F36D89010361136123605
:101A5600133626AE31EF0DF033EF0DF034EF0DF007
:101A66001080D890233624362536263614501C5C32
:101A760015501D5816501E5817501F58D8A046EF1F
:101A86000DF048EF0DF051EF0DF0268C14501C5E52
:101A960015501D5A16501E5A17501F5A282A190E2D
:101AA600286458EF0DF05AEF0DF01AEF0DF01C50A8
:101AB6001D101E101F10D8B463EF0DF065EF0DF06A
:101AC6007DEF0DF023807DEF0DF0D89010361136A6
:101AD6001236133626AE72EF0DF074EF0DF075EF79
:101AE6000DF01080D890233624362536263621066A
:101AF600D8A0220612AE82EF0DF084EF0DF068EF4B
:101B06000DF0000E286E26AE8BEF0DF08DEF0DF06A
:101B1600B1EF0DF0FF0E2314186EFF0E2414196E8C
:101B2600FF0E25141A6E7F0E26141B6E1850191000
:101B36001A101B10D8B4A2EF0DF0A4EF0DF0A8EF09
:101B46000DF0010E286EB1EF0DF010A0ADEF0DF007
:101B5600AFEF0DF0B1EF0DF0A4EF0DF02850D8B4B3
:101B6600B7EF0DF0B9EF0DF0DDEF0DF0010E102619
:101B7600000E11221222132213A0C4EF0DF0C6EF9D
:101B86000DF0DDEF0DF010C018F011C019F012C005
:101B96001AF013C01BF01B341B321A3219321832DA
:101BA60018C010F019C011F01AC012F01BC013F0C3
:101BB600214A222A22BEE8EF0DF0225008E1212810
:101BC600D8A0E8EF0DF0EAEF0DF0F5EF0DF0000EFE
:101BD600226E2168000E106E000E116E000E126E3F
:101BE600000E136E22BE02EF0EF0225006E1210413
:101BF600D8B000EF0EF002EF0EF010EF0EF0000E70
:101C0600226E000E216E000E106E000E116E000E7A
:101C1600126E000E136E000E206E21C027F027A054
:101C260017EF0EF019EF0EF01CEF0EF0128E1DEFEF
:101C36000EF0129ED8902730136ED3EF0CF01200E0
:101C46000A6E0A50D8B42AEF0EF02CEF0EF04EEFC3
:101C56000EF005BE33EF0EF031EF0EF04EEF0EF044
:101C660002C006F003C007F004C008F005C009F082
:101C7600061E071E081E091E062A000E0722082237
:101C8600092206C00CF007C00DF008C00EF009C00E
:101C96000FF056EF0EF002C00CF003C00DF004C0BA
:101CA6000EF005C00FF00250031004100510D8A462
:101CB6005FEF0EF061EF0EF06BEF0EF0000E026EAE
:101CC600000E036E000E046E000E056EFCEF0EF0A5
:101CD600960E0B6E75EF0EF00B2AD8900F320E3261
:101CE6000D320C32000E0C14066E000E0D14076E2B
:101CF600000E0E14086EFE0E0F14096E0650071025
:101D060008100910D8A48AEF0EF08CEF0EF06FEFD2
:101D16000EF09AEF0EF00B2A010E0C26000E0D2285
:101D26000E220F22D8900F320E320D320C32000ED8
:101D36000C14066E000E0D14076E000E0E14086EBF
:101D4600FF0E0F14096E0650071008100910D8A4CC
:101D5600AFEF0EF0B1EF0EF08EEF0EF0B9EF0EF022
:101D66000B06D8900C360D360E360F360EBEBEEF6D
:101D76000EF0C0EF0EF0C8EF0EF0020E0B60C6EFCD
:101D86000EF0C8EF0EF0B3EF0EF00BB0CDEF0EF085
:101D9600CFEF0EF0D0EF0EF00E9ED8900B320BC0A8
:101DA60006F0076A086A096A06C009F0086A076A3F
:101DB600066A06500C1207500D1208500E120950F2
:101DC6000F120A50D8B4EAEF0EF0ECEF0EF0F4EF73
:101DD6000EF005BEF3EF0EF0F1EF0EF0F4EF0EF09D
:101DE6000F8E0CC002F00DC003F00EC004F00FC041
:101DF60005F0120047504810D8A404EF0FF006EF84
:101E06000FF008EF0FF09FEF0FF0C69A20EE04F0E8
:101E16004750D9264850DA22DFA014EF0FF016EF0C
:101E26000FF01EEF0FF047C043F048C044F023EC1C
:101E360010F05AEF0FF020EE04F04750D926485024
:101E4600DA22DFB029EF0FF02BEF0FF05AEF0FF089
:101E560020EE04F04750D9264850DA22DFA636EFA6
:101E66000FF038EF0FF03BEF0FF0C58E49EF0FF094
:101E760020EE04F04750D9264850DA22DFB646EF66
:101E86000FF048EF0FF049EF0FF0C59EC69EC69CB7
:101E9600C68820EE03F04750D9264850DA22DF5094
:101EA600C86E47C002F048C003F097EC11F0FBEC97
:101EB60011F020EE04F04750D9264850DA22DFA26E
:101EC60067EF0FF069EF0FF06CEF0FF0C78E7AEF48
:101ED6000FF020EE04F04750D9264850DA22DFB240
:101EE60077EF0FF079EF0FF07AEF0FF0C79E20EE45
:101EF60004F04750D9264850DA22DFA485EF0FF0C8
:101F060087EF0FF08AEF0FF0C78C98EF0FF020EEF7
:101F160004F04750D9264850DA22DFB495EF0FF087
:101F260097EF0FF098EF0FF0C79C47C002F048C03C
:101F360003F030EC11F0C68A12003B343C34426E9A
:101F46004250D8A4A9EF0FF0ABEF0FF0B5EF0FF0AA
:101F5600000E396E000E3A6E000E3B6E000E3C6EA1
:101F660022EF10F039C03DF03AC03EF03BC03FF0E2
:101F76003CC040F0200EC5EF0FF0D89040323F3203
:101F86003E323D32E82EC0EF0FF03D50416E3B8EA3
:101F9600FF0E3916FF0E3A16FF0E3B16000E3C16C4
:101FA600960E425E42BEDCEF0FF0DAEF0FF0F2EF74
:101FB6000FF04250800A970FD8B0E4EF0FF0E6EF2B
:101FC6000FF0E8EF0FF0ABEF0FF0D8903C323B325A
:101FD6003A323932423EE8EF0FF00AEF10F01F0EA8
:101FE6004264F8EF0FF0FAEF0FF002EF10F0ABEFEC
:101FF6000FF0D89039363A363B363C3642064250D8
:10200600D8A408EF10F00AEF10F0FCEF0FF04150E3
:10201600D8B410EF10F012EF10F01AEF10F03C1ECB
:102026003B1E3A1E396C000E3A223B223C2239C036
:1020360039F03AC03AF03BC03BF03CC03CF01200ED
:1020460020EE02F04350D9264450DA22DF50456E86
:10205600C6504518F00B4518C66E000E2D6E000EC4
:102066002E6E800E2F6EBF0E306E43C0D9FF44C059
:10207600DAFFDECF45F0DDCF46F045C002F046C0C0
:1020860003F0046A056A000E23EC0EF002C014F099
:1020960003C015F004C016F005C017F0000E106E50
:1020A600240E116EF40E126E490E136E56EC0CF0E1
:1020B60010C029F011C02AF012C02BF013C02CF06A
:1020C6000BEC08F029C039F02AC03AF02BC03BF0DF
:1020D6002CC03CF0A0EC0FF03950C86E1200150E63
:1020E600F66E220EF76E000EF86E01EE00F010EEA0
:1020F6004AF00900F5CFEEFFE550E150FAE1C20ED5
:10210600F66E210EF76E000EF86E00EE80F010EE01
:1021160053F00900F5CFEEFFE550E150FAE1B20EBB
:10212600F66E230EF76E000EF86E00EE6DF010EEF2
:1021360011F00900F5CFEEFFE550E150FAE100EEAF
:10214600D3F02A0EEE6AE806FDE100EE4BF0220E11
:10215600EE6AE806FDE17E907E920001B3EF10F094
:10216600F8EC11F0C60E476E000E486EFDEC0EF050
:10217600C60E026E000E036E76EC11F00B0E4A6E62
:10218600260E496E5E0EE82EFED7492EFCD74A2E45
:10219600FAD7C60E026E000E036E55EC11F00B0E4A
:1021A6004A6E260E496E5E0EE82EFED7492EFCD7E5
:1021B6004A2EFAD7BBEF10F007EF00F0800F810F21
:1021C600820F830F840F890F8A0F8B0F8C0F8D0F51
:1021D600920F930F940F950F960F1F10101010105B
:1021E60010101F010101010101010101010101019D
:1021F6000100020A121A222A828A929A01530100C7
:10220600030BA08608000300000000000000003257
:102216003A030B131B232B333B0109111961697117
:1022260079000000001C1C1C0000001F1111110089
:10223600000E0A0E15040A11000705020E02020519
:102246000000000001131F00000E0A0E15040A11FB
:09225600001010101010101010FF
:102260009D86A0869E96A19620EE07F00250D92664
:102270000350DA22DECFDDF0DDCFDEF020EE09F014
:102280000250D9260350DA22DECFDBF0DDCFDCF0BE
:1022900020EE0BF00250D9260350DA22DECFD9F01F
:1022A000DDCFDAF0F28EF28C120002500310D8A4C7
:1022B0005CEF11F05EEF11F062EF11F0000E046EB2
:1022C00074EF11F0C584C5B468EF11F06AEF11F036
:1022D00063EF11F09E96C7A870EF11F072EF11F046
:1022E0005EEF11F0010E046E045012000250031054
:1022F000D8A47DEF11F07FEF11F083EF11F0000E05
:10230000046E95EF11F0C580C5B089EF11F08BEF29
:1023100011F084EF11F09E96C7A691EF11F093EFA4
:1023200011F07FEF11F0010E046E0450120020EE48
:1023300002F00250D9260350DA22DF50046EC65054
:102340000418F00B0418C66E1200016EF2900150D2
:10235000D8A4ADEF11F0AFEF11F0B1EF11F0B1EF84
:1023600011F01200016EF2900150D8A4BAEF11F0F2
:10237000BCEF11F0BEEF11F0BEEF11F01200016ED4
:10238000F2900150D8A4C7EF11F0C9EF11F0CBEFD4
:1023900011F0CBEF11F01200016EF2900150D8A4B1
:1023A000D4EF11F0D6EF11F0D8EF11F0D8EF11F013
:1023B0001200685A622A1A622A01010101023222BD
:0323C000120153B4
:1023C400A1924C50B36E4BC0B2FF12009E904E507F
:1023D400CF6E4DC0CEFF1200F2945050D76E4FC056
:1023E400D6FF12009E9264C0CCFF12000CEC12F0D7
:1023F40012009486948812009E961200F0921200A5
:10240400F0901200F2921200A19012009E94120019
:062414009E9C1200120064
:020000040020DA
:08000000FFFFFFFFFFFFFFFF00
:020000040030CA
:0E000000FF071F1FFF8185FF0FC00FE00F409D
:00000001FF
