:040000005BEF00F0C2
:100008005082FACF3CF0FBCF3DF0D9CF3EF0DACFAB
:100018003FF0F3CF40F0F4CF41F0F6CF42F0F7CF06
:1000280043F0F8CF44F0F5CF45F0A0A61EEF00F05E
:1000380020EF00F035EF00F0A1A625EF00F027EF44
:1000480000F035EF00F002D833EF00F00500FA6E4B
:100058003150FD6E3250FE6EFF6AFA50120045EFC5
:1000680000F09DA63AEF00F03CEF00F045EF00F0FD
:100078009EA641EF00F043EF00F045EF00F027EFB8
:1000880000F045C0F5FF44C0F8FF43C0F7FF42C089
:10009800F6FF41C0F4FF40C0F3FF3FC0DAFF3EC0A7
:1000A800D9FF3DC0FBFF3CC0FAFF50921100A2EF00
:0200B8000CF04A
:10100000000E1BAE1ABC1A3A105812041B92145848
:101010001B501B481B401B381B301B281BFA1A6037
:101020001653797374656D20537461727465640D21
:101030000044617465203A2000004DEC0DF0000979
:10104000D8B425EF08F027EF08F061EF08F035EF8E
:1010500008F0ACEC0DF07BEF08F0A8EC0DF07BEFA6
:1010600008F0A0EC0DF07BEF08F013C040F014C0C6
:1010700041F002D845EF08F00500FA6E0750FD6E0A
:101080000850FE6EFF6AFA501200386E396A395005
:10109000000AD8B44EEF08F031EF08F03850010ADA
:1010A000D8B431EF08F0030AD8B429EF08F0010AE8
:1010B000D8B42DEF08F0070AD8B431EF08F031EFBB
:1010C00008F024901EC0D9FF1FC0DAFF1E4A1F2A55
:1010D000DF50B0EC0DF02006D8A0210620502110E2
:1010E000D8A475EF08F077EF08F07AEF08F0060E55
:1010F0007BEF08F0030E120022EC0DF0F28EF28C62
:10110000F28C210E476E100E486E000E4A6E0F0EC6
:10111000496E62EC0BF0080E0001786F050E796FD6
:10112000A20E38EC0DF0850EE82EFED700F0080E6A
:101130000001786F060E796FA60E38EC0DF0850E63
:10114000E82EFED700F0080E0001786FA20EF2EC38
:101150000CF0366E080E0001786FA60EF2EC0CF063
:10116000356E91EC0BF020EE2BF0050EEBCFDBFF94
:10117000E806FCE2DAEC08F09E0EE6EC0CF0346EC9
:10118000000E0001766F34C077F0700EC3EC0AF0E9
:101190000B0E00017F6F260E7E6F5D0EE82EFED7D0
:1011A0007E2FFCD77F2FFAD700F000F0B1EF08F0C8
:1011B0005BEF00F02A380F0B300F0001606F2A50F0
:1011C0000F0B300F616F2D0E626F29380F0B300F30
:1011D000636F29500F0B300F646F2D0E656F283829
:1011E0000F0B300F666F28500F0B300F676F2F0EED
:1011F000686F25380F0B300F696F25500F0B300FBC
:101200006A6F2D0E6B6F26380F0B300F6C6F2650E8
:101210000F0B300F6D6F2D0E6E6F27380F0B300FC9
:101220006F6F27500F0B300F706F0D0E716F310EF7
:10123000476E100E486E000E4A6E080E496E62EC44
:101240000BF0600E476E000E486E000E4A6E120ED6
:10125000496E62EC0BF01200CBEC0DF01EC0D9FF12
:101260001FC0DAFFDF6E1E4A1F2A2006D8A0210603
:1012700020502110D8B43FEF09F041EF09F046EFBC
:1012800009F0B7EC0DF0050E7DEF09F0248651EF63
:1012900009F094EC0DF07DEF09F098EC0DF07DEF86
:1012A00009F00DC040F00EC041F002D861EF09F026
:1012B0000500FA6E0150FD6E0250FE6EFF6AFA5094
:1012C0001200376E386A3850000AD8B46AEF09F055
:1012D0004DEF09F03750010AD8B44DEF09F0030A79
:1012E000D8B449EF09F0010AD8B449EF09F0070A68
:1012F000D8B44DEF09F04DEF09F01200486E010E21
:10130000496E24B486EF09F088EF09F0CAEF09F0BE
:1013100048C01DF02492248424900E0E226E010EEB
:101320001C6EF40E1B6E2486A20E016E1B0E026E46
:10133000000E0D6E000E0E6EA20E036E1B0E046EDE
:10134000000E0F6E000E106EA20E056E1B0E066EC6
:10135000000E116E000E126EA20E076E1B0E086EAE
:10136000000E136E000E146E9E0E096E1B0E0A6E9A
:10137000000E156E000E166E680E466E1B0E476E42
:1013800078EC0DF0C5EC0DF0C4EC0CF0BDEC0DF0FC
:10139000000E496E495012000001766F000E0001E8
:1013A000776F000176517EEC09F00009D8B4DBEFCD
:1013B00009F0DDEF09F0D1EF09F0C20E0001726F04
:1013C000180E736F770E746F000E756FFEEC0CF0D5
:1013D0004B0E466E000E476E000E496E010E486EB3
:1013E000B3EC0CF0000E0001726F000E736F000E74
:1013F000746F000E756F0AEC0DF090EC0DF08DEC33
:101400000CF0E806D8B407EF0AF009EF0AF0FFEF96
:1014100009F00001775112004A6E46504710D8B4C7
:1014200014EF0AF016EF0AF030EF0AF04A50020DFE
:10143000010EF324D96E000EF420DA6E46C0DEFFF2
:1014400047C0DDFF4A50020D0D0EF324D96E000E89
:10145000F420DA6E48C0DEFF49C0DDFF48EF0AF035
:101460004A50020D010EF324D96E000EF420DA6EFC
:10147000A20EDE6E1B0EDD6E4A50020D0D0EF32421
:10148000D96E000EF420DA6E000EDE6E000EDD6EF8
:101490001200248659EF0AF0A4EC0DF085EF0AF053
:1014A000C9EC0DF0030E85EF0AF0A0EC0DF085EF0E
:1014B0000AF00DC040F00EC041F002D869EF0AF00A
:1014C0000500FA6E0150FD6E0250FE6EFF6AFA5082
:1014D0001200376E386A3850000AD8B472EF0AF03A
:1014E00055EF0AF03750010AD8B455EF0AF0030A55
:1014F000D8B44CEF0AF0010AD8B44CEF0AF0070A4E
:10150000D8B450EF0AF055EF0AF012003B6E375096
:101510003810D8B48EEF0AF090EF0AF0AAEF0AF074
:101520003B50020D010EF324D96E000EF420DA6E4A
:1015300037C0DEFF38C0DDFF3B50020D0D0EF32437
:10154000D96E000EF420DA6E39C0DEFF3AC0DDFF3E
:10155000C2EF0AF03B50020D010EF324D96E000ECB
:10156000F420DA6EA20EDE6E1B0EDD6E3B50020D15
:101570000D0EF324D96E000EF420DA6E000EDE6E2E
:10158000000EDD6E12004B6E4B507EEC09F0000930
:10159000D8B4CDEF0AF0CFEF0AF0C4EF0AF06A0E2C
:1015A0000001726F180E736F770E746F000E756FF7
:1015B000FEEC0CF0760E466E000E476E000E496E85
:1015C000010E486EB3EC0CF0000E0001726F000EBD
:1015D000736F000E746F000E756F0AEC0DF090ECD7
:1015E0000DF08DEC0CF0E806D8B4F9EF0AF0FBEF43
:1015F0000AF0F1EF0AF01200C7EC0DF024A003EF9F
:101600000BF005EF0BF011EF0BF04DEC0DF00009B6
:10161000D8B40DEF0BF00FEF0BF011EF0BF00F0E36
:10162000226E2250020D010EF324F66E100EF420ED
:10163000F76EF86A000EF8220900F5CF3AF00900BB
:10164000F5CF3BF002D82EEF0BF00500FA6E3A50C2
:10165000FD6E3B50FE6EFF6AFA501200226E1200C1
:101660002490020E236E3DEF0BF0A4EC0DF061EF21
:101670000BF0A0EC0DF061EF0BF011C040F012C0C8
:1016800041F002D84DEF0BF00500FA6E0550FD6EEB
:101690000650FE6EFF6AFA501200376E386A3850F4
:1016A000000AD8B456EF0BF039EF0BF03750020AAE
:1016B000D8B435EF0BF0010AD8B435EF0BF039EFA1
:1016C0000BF01200000E0001736F000E726F000E1F
:1016D000736F000E726F85EF0BF047C0F6FF48C0C6
:1016E000F7FF000EF86E0F0EF76403D00800F550F8
:1016F00005D0F6CFE9FFF7CFEAFFEF502DEC0DF064
:10170000474A482A0001724B732B4950725D4A5078
:101710007359D8A08EEF0BF090EF0BF06DEF0BF03C
:101720001200000E4B6ED00ECCEC09F0276E010EAD
:101730004B6ED00ECCEC09F0266E020E4B6ED00E26
:10174000CCEC09F0256E040E4B6ED00ECCEC09F0FB
:101750002A6E050E4B6ED00ECCEC09F0296E060EEB
:101760004B6ED00ECCEC09F0286E20EE25F000EE8A
:1017700078F0050EDBCFEBFFE806FCE2120020EE6E
:1017800002F04050D9264150DA22DECF37F0DDCFCB
:1017900038F040C0D9FF41C0DAFFDECF39F0DDCFED
:1017A0003AF0D5EC0CF0000E3C6E000E3D6E000ED3
:1017B0003E6E000E3F6E16EC0DF0020E1200080E8B
:1017C000B86E900EAB6E240EAC6EA00EAF6E010E16
:1017D000B06E000E466E000E476E6EEC0DF0000E01
:1017E000466E000E476E69EC0DF0000E466E000E60
:1017F000476E73EC0DF0000E336E1200466E010E54
:10180000476E24B206EF0CF008EF0CF01BEF0CF063
:101810002482000E476E4650D8B411EF0CF013EF3F
:101820000CF017EF0CF0010E226E19EF0CF0020E07
:10183000226EBFEC0DF047501200000E8D6E000EB0
:101840008C6E000E896E000E8A6E000E8B6E070E77
:10185000966E92689368BF0E946E95687E681F0EB0
:101860007F6E000E7C6EF18E120040C037F041C0DA
:1018700038F0000E3A6E010E396ED5EC0CF0000E09
:101880003C6E000E3D6E000E3E6E000E3F6E16EC7E
:101890000DF0040E120040C037F041C038F0000EC9
:1018A0003A6E020E396ED5EC0CF0000E3C6E000E56
:1018B0003D6E000E3E6E000E3F6E16EC0DF0020EF9
:1018C000120040C037F041C038F0000E3A6E010EF1
:1018D000396ED5EC0CF0000E3C6E000E3D6E000E25
:1018E0003E6E000E3F6E16EC0DF0020E120040C070
:1018F00037F041C038F0000E3A6E020E396ED5EC6A
:101900000CF0000E3C6E000E3D6E000E3E6E000EA2
:101910003F6E16EC0DF0040E1200010E466E24B25E
:1019200094EF0CF096EF0CF0A0EF0CF024941D68EF
:10193000C5EC0DF0C1EC0DF0C3EC0DF023C046F08A
:101940004650120000EE60F0120EEE6AE806FDE16D
:1019500000EE01F0360EEE6AE806FDE1509050927E
:1019600000017CEF08F024A6B8EF0CF0BAEF0CF001
:10197000C3EF0CF046C01EF047C01FF048C020F077
:1019800049C021F024961200C6BAC9EF0CF0CBEF83
:101990000CF0D4EF0CF0800EC76E080EC66E000E71
:1019A000C56E270EC86EC68A120024A6DAEF0CF0A8
:1019B000DCEF0CF0E5EF0CF037C01EF038C01FF084
:1019C00039C020F03AC021F0249612000001786F4F
:1019D000000E4B6E00017851CCEC09F00001796FDC
:1019E000795112000001796F78C04BF000017951F4
:1019F000CCEC09F000017A6F7A51120072C046F007
:101A000073C047F074C048F075C049F0000E0CEC8C
:101A10000AF0120072C046F073C047F074C048F07C
:101A200075C049F0020E0CEC0AF012003CC037F011
:101A30003DC038F03EC039F03FC03AF0000E86ECB1
:101A40000AF012008CEC0DF043EC0DF01DEC0CF0E4
:101A500064EC0DF0DFEC0BF01200466E9EA833EF45
:101A60000DF035EF0DF02EEF0DF046C0ADFF12007A
:101A700000017A6F78C076F079C077F000017A5172
:101A8000C3EC0AF01200800EC76E080EC66E000E80
:101A9000C56E270EC86EC69A1200C5BC52EF0DF077
:101AA00055EF0DF0010E56EF0DF0000E12002480E0
:101AB0001D500109B0EC0DF0050E120024801D50E0
:101AC000B0EC0DF0030E1200300ED36E000E9B6EC4
:101AD000120046C04CF047C04DF0120046C04EF018
:101AE00047C04FF0120046C080F047C081F012009E
:101AF00046C031F047C032F012002492000E236E2F
:101B00000E0E12002490CDEC0DF0040E1200249263
:101B1000000E236E0E0E1200D08EA2869F8612003B
:101B2000000EFEEC0BF01200BAEC0DF0090E1200E4
:101B3000BAEC0DF00A0E1200B7EC0DF0050E120013
:101B4000D3EC0DF0000E1200D5EC0DF0010E1200DA
:101B5000D5EC0DF0020E1200D5EC0DF0010E1200C6
:101B6000376E37C0C9FF1200FCEC0AF01200C59AAC
:101B7000C5881200C58AC58812009D861200C580DE
:101B800012009D961200C69A12009E9612009E9612
:101B900012009E861200C9501200C5861200050E62
:0E1BA0001200010E1200C5841200C582120050
:020000040020DA
:08000000FFFFFFFFFFFFFFFF00
:020000040030CA
:0E000000FF021F1EFF8B85FF0FC00FE00F4099
:00000001FF
